{
  "address": "0xdC207e5637045a1f39788E5e39Af87bc498B495f",
  "abi": [
    {
      "inputs": [],
      "stateMutability": "nonpayable",
      "type": "constructor"
    },
    {
      "anonymous": false,
      "inputs": [
        {
          "indexed": true,
          "internalType": "address",
          "name": "owner",
          "type": "address"
        },
        {
          "indexed": true,
          "internalType": "address",
          "name": "approved",
          "type": "address"
        },
        {
          "indexed": true,
          "internalType": "uint256",
          "name": "tokenId",
          "type": "uint256"
        }
      ],
      "name": "Approval",
      "type": "event"
    },
    {
      "anonymous": false,
      "inputs": [
        {
          "indexed": true,
          "internalType": "address",
          "name": "owner",
          "type": "address"
        },
        {
          "indexed": true,
          "internalType": "address",
          "name": "operator",
          "type": "address"
        },
        {
          "indexed": false,
          "internalType": "bool",
          "name": "approved",
          "type": "bool"
        }
      ],
      "name": "ApprovalForAll",
      "type": "event"
    },
    {
      "anonymous": false,
      "inputs": [
        {
          "indexed": true,
          "internalType": "uint256",
          "name": "tokenId",
          "type": "uint256"
        },
        {
          "indexed": false,
          "internalType": "string",
          "name": "tokenURI",
          "type": "string"
        }
      ],
      "name": "CreatedCanvas",
      "type": "event"
    },
    {
      "anonymous": false,
      "inputs": [
        {
          "indexed": true,
          "internalType": "address",
          "name": "previousOwner",
          "type": "address"
        },
        {
          "indexed": true,
          "internalType": "address",
          "name": "newOwner",
          "type": "address"
        }
      ],
      "name": "OwnershipTransferred",
      "type": "event"
    },
    {
      "anonymous": false,
      "inputs": [
        {
          "indexed": true,
          "internalType": "uint256",
          "name": "tokenId",
          "type": "uint256"
        },
        {
          "indexed": false,
          "internalType": "string",
          "name": "tokenURI",
          "type": "string"
        }
      ],
      "name": "PaintedCanvas",
      "type": "event"
    },
    {
      "anonymous": false,
      "inputs": [
        {
          "indexed": false,
          "internalType": "string",
          "name": "_value",
          "type": "string"
        },
        {
          "indexed": true,
          "internalType": "uint256",
          "name": "_id",
          "type": "uint256"
        }
      ],
      "name": "PermanentURI",
      "type": "event"
    },
    {
      "anonymous": false,
      "inputs": [
        {
          "indexed": true,
          "internalType": "address",
          "name": "from",
          "type": "address"
        },
        {
          "indexed": true,
          "internalType": "address",
          "name": "to",
          "type": "address"
        },
        {
          "indexed": true,
          "internalType": "uint256",
          "name": "tokenId",
          "type": "uint256"
        }
      ],
      "name": "Transfer",
      "type": "event"
    },
    {
      "inputs": [
        {
          "internalType": "address",
          "name": "_addr",
          "type": "address"
        }
      ],
      "name": "addressToString",
      "outputs": [
        {
          "internalType": "string",
          "name": "",
          "type": "string"
        }
      ],
      "stateMutability": "pure",
      "type": "function"
    },
    {
      "inputs": [
        {
          "internalType": "address",
          "name": "to",
          "type": "address"
        },
        {
          "internalType": "uint256",
          "name": "tokenId",
          "type": "uint256"
        }
      ],
      "name": "approve",
      "outputs": [],
      "stateMutability": "nonpayable",
      "type": "function"
    },
    {
      "inputs": [
        {
          "internalType": "address",
          "name": "owner",
          "type": "address"
        }
      ],
      "name": "balanceOf",
      "outputs": [
        {
          "internalType": "uint256",
          "name": "",
          "type": "uint256"
        }
      ],
      "stateMutability": "view",
      "type": "function"
    },
    {
      "inputs": [
        {
          "internalType": "bytes",
          "name": "_imageURI",
          "type": "bytes"
        },
        {
          "internalType": "uint256",
          "name": "tokenId",
          "type": "uint256"
        }
      ],
      "name": "buildTokenURI",
      "outputs": [
        {
          "internalType": "string",
          "name": "",
          "type": "string"
        }
      ],
      "stateMutability": "view",
      "type": "function"
    },
    {
      "inputs": [],
      "name": "create",
      "outputs": [],
      "stateMutability": "nonpayable",
      "type": "function"
    },
    {
      "inputs": [],
      "name": "fee",
      "outputs": [
        {
          "internalType": "uint256",
          "name": "",
          "type": "uint256"
        }
      ],
      "stateMutability": "view",
      "type": "function"
    },
    {
      "inputs": [
        {
          "internalType": "uint256",
          "name": "tokenId",
          "type": "uint256"
        }
      ],
      "name": "freezeMetadata",
      "outputs": [],
      "stateMutability": "payable",
      "type": "function"
    },
    {
      "inputs": [
        {
          "internalType": "uint256",
          "name": "tokenId",
          "type": "uint256"
        }
      ],
      "name": "getApproved",
      "outputs": [
        {
          "internalType": "address",
          "name": "",
          "type": "address"
        }
      ],
      "stateMutability": "view",
      "type": "function"
    },
    {
      "inputs": [
        {
          "internalType": "address",
          "name": "owner",
          "type": "address"
        },
        {
          "internalType": "address",
          "name": "operator",
          "type": "address"
        }
      ],
      "name": "isApprovedForAll",
      "outputs": [
        {
          "internalType": "bool",
          "name": "",
          "type": "bool"
        }
      ],
      "stateMutability": "view",
      "type": "function"
    },
    {
      "inputs": [
        {
          "internalType": "uint256",
          "name": "",
          "type": "uint256"
        }
      ],
      "name": "isFrozen",
      "outputs": [
        {
          "internalType": "bool",
          "name": "",
          "type": "bool"
        }
      ],
      "stateMutability": "view",
      "type": "function"
    },
    {
      "inputs": [
        {
          "internalType": "uint256",
          "name": "",
          "type": "uint256"
        }
      ],
      "name": "iterations",
      "outputs": [
        {
          "internalType": "uint256",
          "name": "",
          "type": "uint256"
        }
      ],
      "stateMutability": "view",
      "type": "function"
    },
    {
      "inputs": [],
      "name": "name",
      "outputs": [
        {
          "internalType": "string",
          "name": "",
          "type": "string"
        }
      ],
      "stateMutability": "view",
      "type": "function"
    },
    {
      "inputs": [],
      "name": "owner",
      "outputs": [
        {
          "internalType": "address",
          "name": "",
          "type": "address"
        }
      ],
      "stateMutability": "view",
      "type": "function"
    },
    {
      "inputs": [
        {
          "internalType": "uint256",
          "name": "tokenId",
          "type": "uint256"
        }
      ],
      "name": "ownerOf",
      "outputs": [
        {
          "internalType": "address",
          "name": "",
          "type": "address"
        }
      ],
      "stateMutability": "view",
      "type": "function"
    },
    {
      "inputs": [
        {
          "internalType": "uint256",
          "name": "tokenId",
          "type": "uint256"
        },
        {
          "internalType": "string[]",
          "name": "colors",
          "type": "string[]"
        }
      ],
      "name": "paint",
      "outputs": [],
      "stateMutability": "nonpayable",
      "type": "function"
    },
    {
      "inputs": [],
      "name": "renounceOwnership",
      "outputs": [],
      "stateMutability": "nonpayable",
      "type": "function"
    },
    {
      "inputs": [
        {
          "internalType": "address",
          "name": "from",
          "type": "address"
        },
        {
          "internalType": "address",
          "name": "to",
          "type": "address"
        },
        {
          "internalType": "uint256",
          "name": "tokenId",
          "type": "uint256"
        }
      ],
      "name": "safeTransferFrom",
      "outputs": [],
      "stateMutability": "nonpayable",
      "type": "function"
    },
    {
      "inputs": [
        {
          "internalType": "address",
          "name": "from",
          "type": "address"
        },
        {
          "internalType": "address",
          "name": "to",
          "type": "address"
        },
        {
          "internalType": "uint256",
          "name": "tokenId",
          "type": "uint256"
        },
        {
          "internalType": "bytes",
          "name": "_data",
          "type": "bytes"
        }
      ],
      "name": "safeTransferFrom",
      "outputs": [],
      "stateMutability": "nonpayable",
      "type": "function"
    },
    {
      "inputs": [
        {
          "internalType": "address",
          "name": "operator",
          "type": "address"
        },
        {
          "internalType": "bool",
          "name": "approved",
          "type": "bool"
        }
      ],
      "name": "setApprovalForAll",
      "outputs": [],
      "stateMutability": "nonpayable",
      "type": "function"
    },
    {
      "inputs": [
        {
          "internalType": "uint256",
          "name": "newFee",
          "type": "uint256"
        }
      ],
      "name": "setFreezeFee",
      "outputs": [],
      "stateMutability": "nonpayable",
      "type": "function"
    },
    {
      "inputs": [
        {
          "internalType": "uint256",
          "name": "",
          "type": "uint256"
        }
      ],
      "name": "sizeStrings",
      "outputs": [
        {
          "internalType": "string",
          "name": "",
          "type": "string"
        }
      ],
      "stateMutability": "view",
      "type": "function"
    },
    {
      "inputs": [
        {
          "internalType": "bytes4",
          "name": "interfaceId",
          "type": "bytes4"
        }
      ],
      "name": "supportsInterface",
      "outputs": [
        {
          "internalType": "bool",
          "name": "",
          "type": "bool"
        }
      ],
      "stateMutability": "view",
      "type": "function"
    },
    {
      "inputs": [],
      "name": "symbol",
      "outputs": [
        {
          "internalType": "string",
          "name": "",
          "type": "string"
        }
      ],
      "stateMutability": "view",
      "type": "function"
    },
    {
      "inputs": [],
      "name": "tokenCounter",
      "outputs": [
        {
          "internalType": "uint256",
          "name": "",
          "type": "uint256"
        }
      ],
      "stateMutability": "view",
      "type": "function"
    },
    {
      "inputs": [
        {
          "internalType": "uint256",
          "name": "",
          "type": "uint256"
        }
      ],
      "name": "tokenIdString",
      "outputs": [
        {
          "internalType": "string",
          "name": "",
          "type": "string"
        }
      ],
      "stateMutability": "view",
      "type": "function"
    },
    {
      "inputs": [
        {
          "internalType": "uint256",
          "name": "tokenId",
          "type": "uint256"
        }
      ],
      "name": "tokenURI",
      "outputs": [
        {
          "internalType": "string",
          "name": "",
          "type": "string"
        }
      ],
      "stateMutability": "view",
      "type": "function"
    },
    {
      "inputs": [
        {
          "internalType": "address",
          "name": "from",
          "type": "address"
        },
        {
          "internalType": "address",
          "name": "to",
          "type": "address"
        },
        {
          "internalType": "uint256",
          "name": "tokenId",
          "type": "uint256"
        }
      ],
      "name": "transferFrom",
      "outputs": [],
      "stateMutability": "nonpayable",
      "type": "function"
    },
    {
      "inputs": [
        {
          "internalType": "address",
          "name": "newOwner",
          "type": "address"
        }
      ],
      "name": "transferOwnership",
      "outputs": [],
      "stateMutability": "nonpayable",
      "type": "function"
    },
    {
      "inputs": [],
      "name": "withdraw",
      "outputs": [],
      "stateMutability": "nonpayable",
      "type": "function"
    }
  ],
  "transactionHash": "0xfd18860adf804c862a152686251d45e0fd8ef2054b48b9ae08d59b34934f9949",
  "args": [],
  "solcInputHash": "846c823c594d0e4e66c0de904961c106",
  "bytecode": "0x60806040523480156200001157600080fd5b506040518060400160405280600e81526020017f457468657265756d205061696e740000000000000000000000000000000000008152506040518060400160405280600881526020017f4554485041494e540000000000000000000000000000000000000000000000008152508160009080519060200190620000969291906200033c565b508060019080519060200190620000af9291906200033c565b505050620000d2620000c66200026e60201b60201c565b6200027660201b60201c565b600060088190555067016345785d8a00006009819055506040518060400160405280600181526020017f3000000000000000000000000000000000000000000000000000000000000000815250600d60008081526020019081526020016000209080519060200190620001479291906200033c565b506040518060400160405280600381526020017f3132380000000000000000000000000000000000000000000000000000000000815250600d6000600181526020019081526020016000209080519060200190620001a79291906200033c565b506040518060400160405280600381526020017f3235360000000000000000000000000000000000000000000000000000000000815250600d6000600281526020019081526020016000209080519060200190620002079291906200033c565b506040518060400160405280600381526020017f3338340000000000000000000000000000000000000000000000000000000000815250600d6000600381526020019081526020016000209080519060200190620002679291906200033c565b5062000451565b600033905090565b6000600760009054906101000a900473ffffffffffffffffffffffffffffffffffffffff16905081600760006101000a81548173ffffffffffffffffffffffffffffffffffffffff021916908373ffffffffffffffffffffffffffffffffffffffff1602179055508173ffffffffffffffffffffffffffffffffffffffff168173ffffffffffffffffffffffffffffffffffffffff167f8be0079c531659141344cd1fd0a4f28419497f9722a3daafe3b4186f6b6457e060405160405180910390a35050565b8280546200034a90620003ec565b90600052602060002090601f0160209004810192826200036e5760008555620003ba565b82601f106200038957805160ff1916838001178555620003ba565b82800160010185558215620003ba579182015b82811115620003b95782518255916020019190600101906200039c565b5b509050620003c99190620003cd565b5090565b5b80821115620003e8576000816000905550600101620003ce565b5090565b600060028204905060018216806200040557607f821691505b602082108114156200041c576200041b62000422565b5b50919050565b7f4e487b7100000000000000000000000000000000000000000000000000000000600052602260045260246000fd5b614ab380620004616000396000f3fe6080604052600436106101c25760003560e01c80636d018797116100f7578063a22cb46511610095578063ddca3f4311610064578063ddca3f431461067b578063e985e9c5146106a6578063efc81a8c146106e3578063f2fde38b146106fa576101c2565b8063a22cb465146105c1578063b88d4fde146105ea578063c87b56dd14610613578063d082e38114610650576101c2565b80638da5cb5b116100d15780638da5cb5b1461050557806394c0d63b1461053057806395d89b4114610559578063a089479914610584576101c2565b80636d0187971461047457806370a08231146104b1578063715018a6146104ee576101c2565b806342842e0e11610164578063589bbae21161013e578063589bbae2146103805780635e57966d146103bd5780636352211e146103fa5780636cc9369d14610437576101c2565b806342842e0e14610312578063435104121461033b5780634dcf6ad614610364576101c2565b8063095ea7b3116101a0578063095ea7b31461026c5780630b398a301461029557806323b872dd146102d25780633ccfd60b146102fb576101c2565b806301ffc9a7146101c757806306fdde0314610204578063081812fc1461022f575b600080fd5b3480156101d357600080fd5b506101ee60048036038101906101e99190613007565b610723565b6040516101fb91906142a6565b60405180910390f35b34801561021057600080fd5b50610219610805565b60405161022691906142c1565b60405180910390f35b34801561023b57600080fd5b50610256600480360381019061025191906130ad565b610897565b604051610263919061423f565b60405180910390f35b34801561027857600080fd5b50610293600480360381019061028e9190612fcb565b61091c565b005b3480156102a157600080fd5b506102bc60048036038101906102b791906130ad565b610a34565b6040516102c991906142c1565b60405180910390f35b3480156102de57600080fd5b506102f960048036038101906102f49190612ec5565b610ad4565b005b34801561030757600080fd5b50610310610b34565b005b34801561031e57600080fd5b5061033960048036038101906103349190612ec5565b610c00565b005b34801561034757600080fd5b50610362600480360381019061035d91906130ad565b610c20565b005b61037e600480360381019061037991906130ad565b610ca6565b005b34801561038c57600080fd5b506103a760048036038101906103a291906130ad565b610d9a565b6040516103b49190614563565b60405180910390f35b3480156103c957600080fd5b506103e460048036038101906103df9190612e60565b610db2565b6040516103f191906142c1565b60405180910390f35b34801561040657600080fd5b50610421600480360381019061041c91906130ad565b611213565b60405161042e919061423f565b60405180910390f35b34801561044357600080fd5b5061045e60048036038101906104599190613059565b6112c5565b60405161046b91906142c1565b60405180910390f35b34801561048057600080fd5b5061049b600480360381019061049691906130ad565b61132a565b6040516104a891906142c1565b60405180910390f35b3480156104bd57600080fd5b506104d860048036038101906104d39190612e60565b6113ca565b6040516104e59190614563565b60405180910390f35b3480156104fa57600080fd5b50610503611482565b005b34801561051157600080fd5b5061051a61150a565b604051610527919061423f565b60405180910390f35b34801561053c57600080fd5b50610557600480360381019061055291906130d6565b611534565b005b34801561056557600080fd5b5061056e611754565b60405161057b91906142c1565b60405180910390f35b34801561059057600080fd5b506105ab60048036038101906105a691906130ad565b6117e6565b6040516105b891906142a6565b60405180910390f35b3480156105cd57600080fd5b506105e860048036038101906105e39190612f8f565b611806565b005b3480156105f657600080fd5b50610611600480360381019061060c9190612f14565b611987565b005b34801561061f57600080fd5b5061063a600480360381019061063591906130ad565b6119e9565b60405161064791906142c1565b60405180910390f35b34801561065c57600080fd5b50610665611b3b565b6040516106729190614563565b60405180910390f35b34801561068757600080fd5b50610690611b41565b60405161069d9190614563565b60405180910390f35b3480156106b257600080fd5b506106cd60048036038101906106c89190612e89565b611b47565b6040516106da91906142a6565b60405180910390f35b3480156106ef57600080fd5b506106f8611bdb565b005b34801561070657600080fd5b50610721600480360381019061071c9190612e60565b611d0d565b005b60007f80ac58cd000000000000000000000000000000000000000000000000000000007bffffffffffffffffffffffffffffffffffffffffffffffffffffffff1916827bffffffffffffffffffffffffffffffffffffffffffffffffffffffff191614806107ee57507f5b5e139f000000000000000000000000000000000000000000000000000000007bffffffffffffffffffffffffffffffffffffffffffffffffffffffff1916827bffffffffffffffffffffffffffffffffffffffffffffffffffffffff1916145b806107fe57506107fd82611e05565b5b9050919050565b606060008054610814906148a8565b80601f0160208091040260200160405190810160405280929190818152602001828054610840906148a8565b801561088d5780601f106108625761010080835404028352916020019161088d565b820191906000526020600020905b81548152906001019060200180831161087057829003601f168201915b5050505050905090565b60006108a282611e6f565b6108e1576040517f08c379a00000000000000000000000000000000000000000000000000000000081526004016108d890614483565b60405180910390fd5b6004600083815260200190815260200160002060009054906101000a900473ffffffffffffffffffffffffffffffffffffffff169050919050565b600061092782611213565b90508073ffffffffffffffffffffffffffffffffffffffff168373ffffffffffffffffffffffffffffffffffffffff161415610998576040517f08c379a000000000000000000000000000000000000000000000000000000000815260040161098f90614503565b60405180910390fd5b8073ffffffffffffffffffffffffffffffffffffffff166109b7611edb565b73ffffffffffffffffffffffffffffffffffffffff1614806109e657506109e5816109e0611edb565b611b47565b5b610a25576040517f08c379a0000000000000000000000000000000000000000000000000000000008152600401610a1c906143c3565b60405180910390fd5b610a2f8383611ee3565b505050565b600d6020528060005260406000206000915090508054610a53906148a8565b80601f0160208091040260200160405190810160405280929190818152602001828054610a7f906148a8565b8015610acc5780601f10610aa157610100808354040283529160200191610acc565b820191906000526020600020905b815481529060010190602001808311610aaf57829003601f168201915b505050505081565b610ae5610adf611edb565b82611f9c565b610b24576040517f08c379a0000000000000000000000000000000000000000000000000000000008152600401610b1b90614543565b60405180910390fd5b610b2f83838361207a565b505050565b610b3c611edb565b73ffffffffffffffffffffffffffffffffffffffff16610b5a61150a565b73ffffffffffffffffffffffffffffffffffffffff1614610bb0576040517f08c379a0000000000000000000000000000000000000000000000000000000008152600401610ba7906144a3565b60405180910390fd5b610bb861150a565b73ffffffffffffffffffffffffffffffffffffffff166108fc479081150290604051600060405180830381858888f19350505050158015610bfd573d6000803e3d6000fd5b50565b610c1b83838360405180602001604052806000815250611987565b505050565b610c28611edb565b73ffffffffffffffffffffffffffffffffffffffff16610c4661150a565b73ffffffffffffffffffffffffffffffffffffffff1614610c9c576040517f08c379a0000000000000000000000000000000000000000000000000000000008152600401610c93906144a3565b60405180910390fd5b8060098190555050565b600954341015610ceb576040517f08c379a0000000000000000000000000000000000000000000000000000000008152600401610ce2906142e3565b60405180910390fd5b3373ffffffffffffffffffffffffffffffffffffffff16610d0b82611213565b73ffffffffffffffffffffffffffffffffffffffff1614610d2b57600080fd5b6001600a600083815260200190815260200160002060006101000a81548160ff021916908315150217905550807fa109ba539900bf1b633f956d63c96fc89b814c7287f7aa50a9216d0b55657207610d82836119e9565b604051610d8f91906142c1565b60405180910390a250565b600c6020528060005260406000206000915090505481565b606060008273ffffffffffffffffffffffffffffffffffffffff1660001b905060006040518060400160405280601081526020017f303132333435363738396162636465660000000000000000000000000000000081525090506000603367ffffffffffffffff811115610e4f577f4e487b7100000000000000000000000000000000000000000000000000000000600052604160045260246000fd5b6040519080825280601f01601f191660200182016040528015610e815781602001600182028036833780820191505090505b5090507f300000000000000000000000000000000000000000000000000000000000000081600081518110610edf577f4e487b7100000000000000000000000000000000000000000000000000000000600052603260045260246000fd5b60200101907effffffffffffffffffffffffffffffffffffffffffffffffffffffffffffff1916908160001a9053507f780000000000000000000000000000000000000000000000000000000000000081600181518110610f69577f4e487b7100000000000000000000000000000000000000000000000000000000600052603260045260246000fd5b60200101907effffffffffffffffffffffffffffffffffffffffffffffffffffffffffffff1916908160001a90535060005b60148110156112075782600485600c84610fb59190614699565b60208110610fec577f4e487b7100000000000000000000000000000000000000000000000000000000600052603260045260246000fd5b1a60f81b7effffffffffffffffffffffffffffffffffffffffffffffffffffffffffffff1916901c60f81c60ff1681518110611051577f4e487b7100000000000000000000000000000000000000000000000000000000600052603260045260246000fd5b602001015160f81c60f81b8260028361106a9190614757565b60026110769190614699565b815181106110ad577f4e487b7100000000000000000000000000000000000000000000000000000000600052603260045260246000fd5b60200101907effffffffffffffffffffffffffffffffffffffffffffffffffffffffffffff1916908160001a90535082600f60f81b85600c846110f09190614699565b60208110611127577f4e487b7100000000000000000000000000000000000000000000000000000000600052603260045260246000fd5b1a60f81b1660f81c60ff1681518110611169577f4e487b7100000000000000000000000000000000000000000000000000000000600052603260045260246000fd5b602001015160f81c60f81b826002836111829190614757565b600361118e9190614699565b815181106111c5577f4e487b7100000000000000000000000000000000000000000000000000000000600052603260045260246000fd5b60200101907effffffffffffffffffffffffffffffffffffffffffffffffffffffffffffff1916908160001a90535080806111ff906148da565b915050610f9b565b50809350505050919050565b6000806002600084815260200190815260200160002060009054906101000a900473ffffffffffffffffffffffffffffffffffffffff169050600073ffffffffffffffffffffffffffffffffffffffff168173ffffffffffffffffffffffffffffffffffffffff1614156112bc576040517f08c379a00000000000000000000000000000000000000000000000000000000081526004016112b390614403565b60405180910390fd5b80915050919050565b6060600b6000838152602001908152602001600020836112e433610db2565b611300600c6000878152602001908152602001600020546122d6565b6040516020016113139493929190614145565b604051602081830303815290604052905092915050565b600b6020528060005260406000206000915090508054611349906148a8565b80601f0160208091040260200160405190810160405280929190818152602001828054611375906148a8565b80156113c25780601f10611397576101008083540402835291602001916113c2565b820191906000526020600020905b8154815290600101906020018083116113a557829003601f168201915b505050505081565b60008073ffffffffffffffffffffffffffffffffffffffff168273ffffffffffffffffffffffffffffffffffffffff16141561143b576040517f08c379a0000000000000000000000000000000000000000000000000000000008152600401611432906143e3565b60405180910390fd5b600360008373ffffffffffffffffffffffffffffffffffffffff1673ffffffffffffffffffffffffffffffffffffffff168152602001908152602001600020549050919050565b61148a611edb565b73ffffffffffffffffffffffffffffffffffffffff166114a861150a565b73ffffffffffffffffffffffffffffffffffffffff16146114fe576040517f08c379a00000000000000000000000000000000000000000000000000000000081526004016114f5906144a3565b60405180910390fd5b61150860006124ab565b565b6000600760009054906101000a900473ffffffffffffffffffffffffffffffffffffffff16905090565b3373ffffffffffffffffffffffffffffffffffffffff1661155484611213565b73ffffffffffffffffffffffffffffffffffffffff161461157457600080fd5b600a600084815260200190815260200160002060009054906101000a900460ff161561159f57600080fd5b60006040516020016115b090614208565b60405160208183030381529060405290506000805b60108110156116b55760006004826115dd9190614923565b1480156115ea5750600381115b156115ff576001826115fc9190614699565b91505b82600d60006004846116119190614923565b8152602001908152602001600020600d600085815260200190815260200160002087878581811061166b577f4e487b7100000000000000000000000000000000000000000000000000000000600052603260045260246000fd5b905060200281019061167d919061457e565b604051602001611691959493929190614093565b604051602081830303815290604052925080806116ad906148da565b9150506115c5565b50816040516020016116c791906140ff565b60405160208183030381529060405291506000826040516020016116eb919061421d565b60405160208183030381529060405290506001600c60008881526020019081526020016000205461171c9190614699565b600c600088815260200190815260200160002081905550600061173f82886112c5565b905061174b8782612571565b50505050505050565b606060018054611763906148a8565b80601f016020809104026020016040519081016040528092919081815260200182805461178f906148a8565b80156117dc5780601f106117b1576101008083540402835291602001916117dc565b820191906000526020600020905b8154815290600101906020018083116117bf57829003601f168201915b5050505050905090565b600a6020528060005260406000206000915054906101000a900460ff1681565b61180e611edb565b73ffffffffffffffffffffffffffffffffffffffff168273ffffffffffffffffffffffffffffffffffffffff16141561187c576040517f08c379a000000000000000000000000000000000000000000000000000000000815260040161187390614383565b60405180910390fd5b8060056000611889611edb565b73ffffffffffffffffffffffffffffffffffffffff1673ffffffffffffffffffffffffffffffffffffffff16815260200190815260200160002060008473ffffffffffffffffffffffffffffffffffffffff1673ffffffffffffffffffffffffffffffffffffffff16815260200190815260200160002060006101000a81548160ff0219169083151502179055508173ffffffffffffffffffffffffffffffffffffffff16611936611edb565b73ffffffffffffffffffffffffffffffffffffffff167f17307eab39ab6107e8899845ad3d59bd9653f200f220920489ca2b5937696c318360405161197b91906142a6565b60405180910390a35050565b611998611992611edb565b83611f9c565b6119d7576040517f08c379a00000000000000000000000000000000000000000000000000000000081526004016119ce90614543565b60405180910390fd5b6119e3848484846125e5565b50505050565b60606119f482611e6f565b611a33576040517f08c379a0000000000000000000000000000000000000000000000000000000008152600401611a2a90614463565b60405180910390fd5b6000600660008481526020019081526020016000208054611a53906148a8565b80601f0160208091040260200160405190810160405280929190818152602001828054611a7f906148a8565b8015611acc5780601f10611aa157610100808354040283529160200191611acc565b820191906000526020600020905b815481529060010190602001808311611aaf57829003601f168201915b505050505090506000611add612641565b9050600081511415611af3578192505050611b36565b600082511115611b28578082604051602001611b10929190614121565b60405160208183030381529060405292505050611b36565b611b3184612658565b925050505b919050565b60085481565b60095481565b6000600560008473ffffffffffffffffffffffffffffffffffffffff1673ffffffffffffffffffffffffffffffffffffffff16815260200190815260200160002060008373ffffffffffffffffffffffffffffffffffffffff1673ffffffffffffffffffffffffffffffffffffffff16815260200190815260200160002060009054906101000a900460ff16905092915050565b6102006008541115611bec57600080fd5b6002611bf7336113ca565b10611c37576040517f08c379a0000000000000000000000000000000000000000000000000000000008152600401611c2e90614523565b60405180910390fd5b611c43336008546126ff565b611c4e6008546122d6565b600b600060085481526020019081526020016000209080519060200190611c76929190612ca2565b506000600b60006008548152602001908152602001600020604051602001611c9e91906141ba565b6040516020818303038152906040529050611cbb60085482612571565b6008547fe57cac0ee598d6b1a7ddf8395fb2e4b80a19c8ab9ff4c09c4f16dedfc6b126fb82604051611ced91906142c1565b60405180910390a26001600854611d049190614699565b60088190555050565b611d15611edb565b73ffffffffffffffffffffffffffffffffffffffff16611d3361150a565b73ffffffffffffffffffffffffffffffffffffffff1614611d89576040517f08c379a0000000000000000000000000000000000000000000000000000000008152600401611d80906144a3565b60405180910390fd5b600073ffffffffffffffffffffffffffffffffffffffff168173ffffffffffffffffffffffffffffffffffffffff161415611df9576040517f08c379a0000000000000000000000000000000000000000000000000000000008152600401611df090614323565b60405180910390fd5b611e02816124ab565b50565b60007f01ffc9a7000000000000000000000000000000000000000000000000000000007bffffffffffffffffffffffffffffffffffffffffffffffffffffffff1916827bffffffffffffffffffffffffffffffffffffffffffffffffffffffff1916149050919050565b60008073ffffffffffffffffffffffffffffffffffffffff166002600084815260200190815260200160002060009054906101000a900473ffffffffffffffffffffffffffffffffffffffff1673ffffffffffffffffffffffffffffffffffffffff1614159050919050565b600033905090565b816004600083815260200190815260200160002060006101000a81548173ffffffffffffffffffffffffffffffffffffffff021916908373ffffffffffffffffffffffffffffffffffffffff160217905550808273ffffffffffffffffffffffffffffffffffffffff16611f5683611213565b73ffffffffffffffffffffffffffffffffffffffff167f8c5be1e5ebec7d5bd14f71427d1e84f3dd0314c0f7b2291e5b200ac8c7c3b92560405160405180910390a45050565b6000611fa782611e6f565b611fe6576040517f08c379a0000000000000000000000000000000000000000000000000000000008152600401611fdd906143a3565b60405180910390fd5b6000611ff183611213565b90508073ffffffffffffffffffffffffffffffffffffffff168473ffffffffffffffffffffffffffffffffffffffff16148061206057508373ffffffffffffffffffffffffffffffffffffffff1661204884610897565b73ffffffffffffffffffffffffffffffffffffffff16145b8061207157506120708185611b47565b5b91505092915050565b8273ffffffffffffffffffffffffffffffffffffffff1661209a82611213565b73ffffffffffffffffffffffffffffffffffffffff16146120f0576040517f08c379a00000000000000000000000000000000000000000000000000000000081526004016120e7906144c3565b60405180910390fd5b600073ffffffffffffffffffffffffffffffffffffffff168273ffffffffffffffffffffffffffffffffffffffff161415612160576040517f08c379a000000000000000000000000000000000000000000000000000000000815260040161215790614363565b60405180910390fd5b61216b83838361271d565b612176600082611ee3565b6001600360008573ffffffffffffffffffffffffffffffffffffffff1673ffffffffffffffffffffffffffffffffffffffff16815260200190815260200160002060008282546121c691906147b1565b925050819055506001600360008473ffffffffffffffffffffffffffffffffffffffff1673ffffffffffffffffffffffffffffffffffffffff168152602001908152602001600020600082825461221d9190614699565b92505081905550816002600083815260200190815260200160002060006101000a81548173ffffffffffffffffffffffffffffffffffffffff021916908373ffffffffffffffffffffffffffffffffffffffff160217905550808273ffffffffffffffffffffffffffffffffffffffff168473ffffffffffffffffffffffffffffffffffffffff167fddf252ad1be2c89b69c2b068fc378daa952ba7f163c4a11628f55a4df523b3ef60405160405180910390a4505050565b6060600082141561231e576040518060400160405280600181526020017f300000000000000000000000000000000000000000000000000000000000000081525090506124a6565b600082905060005b60008214612350578080612339906148da565b915050600a826123499190614726565b9150612326565b60008167ffffffffffffffff811115612392577f4e487b7100000000000000000000000000000000000000000000000000000000600052604160045260246000fd5b6040519080825280601f01601f1916602001820160405280156123c45781602001600182028036833780820191505090505b50905060008290505b6000861461249e576001816123e291906147b1565b90506000600a80886123f49190614726565b6123fe9190614757565b8761240991906147b1565b603061241591906146ef565b905060008160f81b905080848481518110612459577f4e487b7100000000000000000000000000000000000000000000000000000000600052603260045260246000fd5b60200101907effffffffffffffffffffffffffffffffffffffffffffffffffffffffffffff1916908160001a905350600a886124959190614726565b975050506123cd565b819450505050505b919050565b6000600760009054906101000a900473ffffffffffffffffffffffffffffffffffffffff16905081600760006101000a81548173ffffffffffffffffffffffffffffffffffffffff021916908373ffffffffffffffffffffffffffffffffffffffff1602179055508173ffffffffffffffffffffffffffffffffffffffff168173ffffffffffffffffffffffffffffffffffffffff167f8be0079c531659141344cd1fd0a4f28419497f9722a3daafe3b4186f6b6457e060405160405180910390a35050565b61257a82611e6f565b6125b9576040517f08c379a00000000000000000000000000000000000000000000000000000000081526004016125b090614423565b60405180910390fd5b806006600084815260200190815260200160002090805190602001906125e0929190612ca2565b505050565b6125f084848461207a565b6125fc84848484612722565b61263b576040517f08c379a000000000000000000000000000000000000000000000000000000000815260040161263290614303565b60405180910390fd5b50505050565b606060405180602001604052806000815250905090565b606061266382611e6f565b6126a2576040517f08c379a0000000000000000000000000000000000000000000000000000000008152600401612699906144e3565b60405180910390fd5b60006126ac612641565b905060008151116126cc57604051806020016040528060008152506126f7565b806126d6846128b9565b6040516020016126e7929190614121565b6040516020818303038152906040525b915050919050565b612719828260405180602001604052806000815250612a66565b5050565b505050565b60006127438473ffffffffffffffffffffffffffffffffffffffff16612ac1565b156128ac578373ffffffffffffffffffffffffffffffffffffffff1663150b7a0261276c611edb565b8786866040518563ffffffff1660e01b815260040161278e949392919061425a565b602060405180830381600087803b1580156127a857600080fd5b505af19250505080156127d957506040513d601f19601f820116820180604052508101906127d69190613030565b60015b61285c573d8060008114612809576040519150601f19603f3d011682016040523d82523d6000602084013e61280e565b606091505b50600081511415612854576040517f08c379a000000000000000000000000000000000000000000000000000000000815260040161284b90614303565b60405180910390fd5b805181602001fd5b63150b7a0260e01b7bffffffffffffffffffffffffffffffffffffffffffffffffffffffff1916817bffffffffffffffffffffffffffffffffffffffffffffffffffffffff1916149150506128b1565b600190505b949350505050565b60606000821415612901576040518060400160405280600181526020017f30000000000000000000000000000000000000000000000000000000000000008152509050612a61565b600082905060005b6000821461293357808061291c906148da565b915050600a8261292c9190614726565b9150612909565b60008167ffffffffffffffff811115612975577f4e487b7100000000000000000000000000000000000000000000000000000000600052604160045260246000fd5b6040519080825280601f01601f1916602001820160405280156129a75781602001600182028036833780820191505090505b5090505b60008514612a5a576001826129c091906147b1565b9150600a856129cf9190614923565b60306129db9190614699565b60f81b818381518110612a17577f4e487b7100000000000000000000000000000000000000000000000000000000600052603260045260246000fd5b60200101907effffffffffffffffffffffffffffffffffffffffffffffffffffffffffffff1916908160001a905350600a85612a539190614726565b94506129ab565b8093505050505b919050565b612a708383612ad4565b612a7d6000848484612722565b612abc576040517f08c379a0000000000000000000000000000000000000000000000000000000008152600401612ab390614303565b60405180910390fd5b505050565b600080823b905060008111915050919050565b600073ffffffffffffffffffffffffffffffffffffffff168273ffffffffffffffffffffffffffffffffffffffff161415612b44576040517f08c379a0000000000000000000000000000000000000000000000000000000008152600401612b3b90614443565b60405180910390fd5b612b4d81611e6f565b15612b8d576040517f08c379a0000000000000000000000000000000000000000000000000000000008152600401612b8490614343565b60405180910390fd5b612b996000838361271d565b6001600360008473ffffffffffffffffffffffffffffffffffffffff1673ffffffffffffffffffffffffffffffffffffffff1681526020019081526020016000206000828254612be99190614699565b92505081905550816002600083815260200190815260200160002060006101000a81548173ffffffffffffffffffffffffffffffffffffffff021916908373ffffffffffffffffffffffffffffffffffffffff160217905550808273ffffffffffffffffffffffffffffffffffffffff16600073ffffffffffffffffffffffffffffffffffffffff167fddf252ad1be2c89b69c2b068fc378daa952ba7f163c4a11628f55a4df523b3ef60405160405180910390a45050565b828054612cae906148a8565b90600052602060002090601f016020900481019282612cd05760008555612d17565b82601f10612ce957805160ff1916838001178555612d17565b82800160010185558215612d17579182015b82811115612d16578251825591602001919060010190612cfb565b5b509050612d249190612d28565b5090565b5b80821115612d41576000816000905550600101612d29565b5090565b6000612d58612d5384614606565b6145d5565b905082815260208101848484011115612d7057600080fd5b612d7b848285614866565b509392505050565b600081359050612d9281614a21565b92915050565b60008083601f840112612daa57600080fd5b8235905067ffffffffffffffff811115612dc357600080fd5b602083019150836020820283011115612ddb57600080fd5b9250929050565b600081359050612df181614a38565b92915050565b600081359050612e0681614a4f565b92915050565b600081519050612e1b81614a4f565b92915050565b600082601f830112612e3257600080fd5b8135612e42848260208601612d45565b91505092915050565b600081359050612e5a81614a66565b92915050565b600060208284031215612e7257600080fd5b6000612e8084828501612d83565b91505092915050565b60008060408385031215612e9c57600080fd5b6000612eaa85828601612d83565b9250506020612ebb85828601612d83565b9150509250929050565b600080600060608486031215612eda57600080fd5b6000612ee886828701612d83565b9350506020612ef986828701612d83565b9250506040612f0a86828701612e4b565b9150509250925092565b60008060008060808587031215612f2a57600080fd5b6000612f3887828801612d83565b9450506020612f4987828801612d83565b9350506040612f5a87828801612e4b565b925050606085013567ffffffffffffffff811115612f7757600080fd5b612f8387828801612e21565b91505092959194509250565b60008060408385031215612fa257600080fd5b6000612fb085828601612d83565b9250506020612fc185828601612de2565b9150509250929050565b60008060408385031215612fde57600080fd5b6000612fec85828601612d83565b9250506020612ffd85828601612e4b565b9150509250929050565b60006020828403121561301957600080fd5b600061302784828501612df7565b91505092915050565b60006020828403121561304257600080fd5b600061305084828501612e0c565b91505092915050565b6000806040838503121561306c57600080fd5b600083013567ffffffffffffffff81111561308657600080fd5b61309285828601612e21565b92505060206130a385828601612e4b565b9150509250929050565b6000602082840312156130bf57600080fd5b60006130cd84828501612e4b565b91505092915050565b6000806000604084860312156130eb57600080fd5b60006130f986828701612e4b565b935050602084013567ffffffffffffffff81111561311657600080fd5b61312286828701612d98565b92509250509250925092565b613137816147e5565b82525050565b613146816147f7565b82525050565b60006131578261464b565b6131618185614661565b9350613171818560208601614875565b61317a81614a10565b840191505092915050565b60006131908261464b565b61319a8185614672565b93506131aa818560208601614875565b80840191505092915050565b60006131c2838561468e565b93506131cf838584614866565b82840190509392505050565b60006131e682614656565b6131f0818561467d565b9350613200818560208601614875565b61320981614a10565b840191505092915050565b600061321f82614656565b613229818561468e565b9350613239818560208601614875565b80840191505092915050565b60008154613252816148a8565b61325c818661468e565b945060018216600081146132775760018114613288576132bb565b60ff198316865281860193506132bb565b61329185614636565b60005b838110156132b357815481890152600182019150602081019050613294565b838801955050505b50505092915050565b60006132d160158361467d565b91507f4e65656420746f2073656e64206d6f72652065746800000000000000000000006000830152602082019050919050565b600061331160328361467d565b91507f4552433732313a207472616e7366657220746f206e6f6e20455243373231526560008301527f63656976657220696d706c656d656e74657200000000000000000000000000006020830152604082019050919050565b600061337760268361467d565b91507f4f776e61626c653a206e6577206f776e657220697320746865207a65726f206160008301527f64647265737300000000000000000000000000000000000000000000000000006020830152604082019050919050565b60006133dd601c8361467d565b91507f4552433732313a20746f6b656e20616c7265616479206d696e746564000000006000830152602082019050919050565b600061341d60298361468e565b91507f2725323077696474683d2731303025272532306865696768743d27313030252760008301527f25323066696c6c3d2700000000000000000000000000000000000000000000006020830152602982019050919050565b6000613483602f8361468e565b91507f646174613a6170706c69636174696f6e2f6a736f6e3b757466382c7b226e616d60008301527f65223a223478345f63616e7661735f00000000000000000000000000000000006020830152602f82019050919050565b60006134e960248361467d565b91507f4552433732313a207472616e7366657220746f20746865207a65726f2061646460008301527f72657373000000000000000000000000000000000000000000000000000000006020830152604082019050919050565b600061354f60198361467d565b91507f4552433732313a20617070726f766520746f2063616c6c6572000000000000006000830152602082019050919050565b600061358f602c8361467d565b91507f4552433732313a206f70657261746f7220717565727920666f72206e6f6e657860008301527f697374656e7420746f6b656e00000000000000000000000000000000000000006020830152604082019050919050565b60006135f560658361468e565b91507f3c737667253230786d6c6e733d27687474703a2f2f7777772e77332e6f72672f60008301527f323030302f7376672725323076696577426f783d27302532303025323035313260208301527f2532303531322725323077696474683d27353132272532306865696768743d2760408301527f353132273e0000000000000000000000000000000000000000000000000000006060830152606582019050919050565b60006136a760078361468e565b91507f27253230793d27000000000000000000000000000000000000000000000000006000830152600782019050919050565b60006136e760038361468e565b91507f272f3e00000000000000000000000000000000000000000000000000000000006000830152600382019050919050565b6000613727600c8361468e565b91507f203c72656374253230783d2700000000000000000000000000000000000000006000830152600c82019050919050565b600061376760388361467d565b91507f4552433732313a20617070726f76652063616c6c6572206973206e6f74206f7760008301527f6e6572206e6f7220617070726f76656420666f7220616c6c00000000000000006020830152604082019050919050565b60006137cd602a8361467d565b91507f4552433732313a2062616c616e636520717565727920666f7220746865207a6560008301527f726f2061646472657373000000000000000000000000000000000000000000006020830152604082019050919050565b600061383360298361467d565b91507f4552433732313a206f776e657220717565727920666f72206e6f6e657869737460008301527f656e7420746f6b656e00000000000000000000000000000000000000000000006020830152604082019050919050565b6000613899602e8361467d565b91507f45524337323155524953746f726167653a2055524920736574206f66206e6f6e60008301527f6578697374656e7420746f6b656e0000000000000000000000000000000000006020830152604082019050919050565b60006138ff60028361468e565b91507f227d0000000000000000000000000000000000000000000000000000000000006000830152600282019050919050565b600061393f606b8361468e565b91507f3c737667253230786d6c6e733d27687474703a2f2f7777772e77332e6f72672f60008301527f323030302f7376672725323076696577426f783d27302532303025323035313260208301527f2532303531322725323077696474683d27353132272532306865696768743d2760408301527f353132273e3c2f7376673e0000000000000000000000000000000000000000006060830152606b82019050919050565b60006139f160208361467d565b91507f4552433732313a206d696e7420746f20746865207a65726f20616464726573736000830152602082019050919050565b6000613a3160038361468e565b91507f7d5d7d00000000000000000000000000000000000000000000000000000000006000830152600382019050919050565b6000613a7160308361468e565b91507f222c2261747472696275746573223a5b7b2274726169745f74797065223a226160008301527f7274697374222c2276616c7565223a22000000000000000000000000000000006020830152603082019050919050565b6000613ad760318361467d565b91507f45524337323155524953746f726167653a2055524920717565727920666f722060008301527f6e6f6e6578697374656e7420746f6b656e0000000000000000000000000000006020830152604082019050919050565b6000613b3d602c8361467d565b91507f4552433732313a20617070726f76656420717565727920666f72206e6f6e657860008301527f697374656e7420746f6b656e00000000000000000000000000000000000000006020830152604082019050919050565b6000613ba360208361467d565b91507f4f776e61626c653a2063616c6c6572206973206e6f7420746865206f776e65726000830152602082019050919050565b6000613be360298361467d565b91507f4552433732313a207472616e73666572206f6620746f6b656e2074686174206960008301527f73206e6f74206f776e00000000000000000000000000000000000000000000006020830152604082019050919050565b6000613c49602f8361467d565b91507f4552433732314d657461646174613a2055524920717565727920666f72206e6f60008301527f6e6578697374656e7420746f6b656e00000000000000000000000000000000006020830152604082019050919050565b6000613caf60508361468e565b91507f2e737667222c226465736372697074696f6e223a224f6e253230636861696e2560008301527f323063616e7661736573253230666f72253230636861696e2532307061696e7460208301527f696e67732e222c22696d616765223a22000000000000000000000000000000006040830152605082019050919050565b6000613d3b60268361468e565b91507f227d2c7b2274726169745f74797065223a22697465726174696f6e73222c227660008301527f616c7565223a00000000000000000000000000000000000000000000000000006020830152602682019050919050565b6000613da160218361467d565b91507f4552433732313a20617070726f76616c20746f2063757272656e74206f776e6560008301527f72000000000000000000000000000000000000000000000000000000000000006020830152604082019050919050565b6000613e0760188361468e565b91507f646174613a696d6167652f7376672b786d6c3b757466382c00000000000000006000830152601882019050919050565b6000613e4760658361468e565b91507f2261747472696275746573223a5b7b2274726169745f74797065223a2261727460008301527f697374222c2276616c7565223a226e6f6e65227d2c7b2274726169745f74797060208301527f65223a22697465726174696f6e73222c2276616c7565223a307d5d2c22696d6160408301527f6765223a220000000000000000000000000000000000000000000000000000006060830152606582019050919050565b6000613ef9602a8361467d565b91507f596f75206d6179206f6e6c79206d696e742074776f2063616e7661736573207060008301527f65722061646472657373000000000000000000000000000000000000000000006020830152604082019050919050565b6000613f5f60318361467d565b91507f4552433732313a207472616e736665722063616c6c6572206973206e6f74206f60008301527f776e6572206e6f7220617070726f7665640000000000000000000000000000006020830152604082019050919050565b6000613fc560478361468e565b91507f2e737667222c226465736372697074696f6e223a224f6e253230636861696e2560008301527f323063616e7661736573253230666f72253230636861696e2532307061696e7460208301527f696e67732e222c000000000000000000000000000000000000000000000000006040830152604782019050919050565b600061405160068361468e565b91507f3c2f7376673e00000000000000000000000000000000000000000000000000006000830152600682019050919050565b61408d8161484f565b82525050565b600061409f8288613185565b91506140aa8261371a565b91506140b68287613245565b91506140c18261369a565b91506140cd8286613245565b91506140d882613410565b91506140e58284866131b6565b91506140f0826136da565b91508190509695505050505050565b600061410b8284613185565b915061411682614044565b915081905092915050565b600061412d8285613214565b91506141398284613214565b91508190509392505050565b600061415082613476565b915061415c8287613245565b915061416782613ca2565b91506141738286613185565b915061417e82613a64565b915061418a8285613214565b915061419582613d2e565b91506141a18284613214565b91506141ac82613a24565b915081905095945050505050565b60006141c582613476565b91506141d18284613245565b91506141dc82613fb8565b91506141e782613e3a565b91506141f282613932565b91506141fd826138f2565b915081905092915050565b6000614213826135e8565b9150819050919050565b600061422882613dfa565b91506142348284613185565b915081905092915050565b6000602082019050614254600083018461312e565b92915050565b600060808201905061426f600083018761312e565b61427c602083018661312e565b6142896040830185614084565b818103606083015261429b818461314c565b905095945050505050565b60006020820190506142bb600083018461313d565b92915050565b600060208201905081810360008301526142db81846131db565b905092915050565b600060208201905081810360008301526142fc816132c4565b9050919050565b6000602082019050818103600083015261431c81613304565b9050919050565b6000602082019050818103600083015261433c8161336a565b9050919050565b6000602082019050818103600083015261435c816133d0565b9050919050565b6000602082019050818103600083015261437c816134dc565b9050919050565b6000602082019050818103600083015261439c81613542565b9050919050565b600060208201905081810360008301526143bc81613582565b9050919050565b600060208201905081810360008301526143dc8161375a565b9050919050565b600060208201905081810360008301526143fc816137c0565b9050919050565b6000602082019050818103600083015261441c81613826565b9050919050565b6000602082019050818103600083015261443c8161388c565b9050919050565b6000602082019050818103600083015261445c816139e4565b9050919050565b6000602082019050818103600083015261447c81613aca565b9050919050565b6000602082019050818103600083015261449c81613b30565b9050919050565b600060208201905081810360008301526144bc81613b96565b9050919050565b600060208201905081810360008301526144dc81613bd6565b9050919050565b600060208201905081810360008301526144fc81613c3c565b9050919050565b6000602082019050818103600083015261451c81613d94565b9050919050565b6000602082019050818103600083015261453c81613eec565b9050919050565b6000602082019050818103600083015261455c81613f52565b9050919050565b60006020820190506145786000830184614084565b92915050565b6000808335600160200384360303811261459757600080fd5b80840192508235915067ffffffffffffffff8211156145b557600080fd5b6020830192506001820236038313156145cd57600080fd5b509250929050565b6000604051905081810181811067ffffffffffffffff821117156145fc576145fb6149e1565b5b8060405250919050565b600067ffffffffffffffff821115614621576146206149e1565b5b601f19601f8301169050602081019050919050565b60008190508160005260206000209050919050565b600081519050919050565b600081519050919050565b600082825260208201905092915050565b600081905092915050565b600082825260208201905092915050565b600081905092915050565b60006146a48261484f565b91506146af8361484f565b9250827fffffffffffffffffffffffffffffffffffffffffffffffffffffffffffffffff038211156146e4576146e3614954565b5b828201905092915050565b60006146fa82614859565b915061470583614859565b92508260ff0382111561471b5761471a614954565b5b828201905092915050565b60006147318261484f565b915061473c8361484f565b92508261474c5761474b614983565b5b828204905092915050565b60006147628261484f565b915061476d8361484f565b9250817fffffffffffffffffffffffffffffffffffffffffffffffffffffffffffffffff04831182151516156147a6576147a5614954565b5b828202905092915050565b60006147bc8261484f565b91506147c78361484f565b9250828210156147da576147d9614954565b5b828203905092915050565b60006147f08261482f565b9050919050565b60008115159050919050565b60007fffffffff0000000000000000000000000000000000000000000000000000000082169050919050565b600073ffffffffffffffffffffffffffffffffffffffff82169050919050565b6000819050919050565b600060ff82169050919050565b82818337600083830152505050565b60005b83811015614893578082015181840152602081019050614878565b838111156148a2576000848401525b50505050565b600060028204905060018216806148c057607f821691505b602082108114156148d4576148d36149b2565b5b50919050565b60006148e58261484f565b91507fffffffffffffffffffffffffffffffffffffffffffffffffffffffffffffffff82141561491857614917614954565b5b600182019050919050565b600061492e8261484f565b91506149398361484f565b92508261494957614948614983565b5b828206905092915050565b7f4e487b7100000000000000000000000000000000000000000000000000000000600052601160045260246000fd5b7f4e487b7100000000000000000000000000000000000000000000000000000000600052601260045260246000fd5b7f4e487b7100000000000000000000000000000000000000000000000000000000600052602260045260246000fd5b7f4e487b7100000000000000000000000000000000000000000000000000000000600052604160045260246000fd5b6000601f19601f8301169050919050565b614a2a816147e5565b8114614a3557600080fd5b50565b614a41816147f7565b8114614a4c57600080fd5b50565b614a5881614803565b8114614a6357600080fd5b50565b614a6f8161484f565b8114614a7a57600080fd5b5056fea264697066735822122025ca522e2745238c4fa7e7d2f3010c56a17065208f8ff7111b18f00b741df11864736f6c63430008000033",
  "devdoc": {
    "kind": "dev",
    "methods": {
      "approve(address,uint256)": {
        "details": "See {IERC721-approve}."
      },
      "balanceOf(address)": {
        "details": "See {IERC721-balanceOf}."
      },
      "getApproved(uint256)": {
        "details": "See {IERC721-getApproved}."
      },
      "isApprovedForAll(address,address)": {
        "details": "See {IERC721-isApprovedForAll}."
      },
      "name()": {
        "details": "See {IERC721Metadata-name}."
      },
      "owner()": {
        "details": "Returns the address of the current owner."
      },
      "ownerOf(uint256)": {
        "details": "See {IERC721-ownerOf}."
      },
      "renounceOwnership()": {
        "details": "Leaves the contract without owner. It will not be possible to call `onlyOwner` functions anymore. Can only be called by the current owner. NOTE: Renouncing ownership will leave the contract without an owner, thereby removing any functionality that is only available to the owner."
      },
      "safeTransferFrom(address,address,uint256)": {
        "details": "See {IERC721-safeTransferFrom}."
      },
      "safeTransferFrom(address,address,uint256,bytes)": {
        "details": "See {IERC721-safeTransferFrom}."
      },
      "setApprovalForAll(address,bool)": {
        "details": "See {IERC721-setApprovalForAll}."
      },
      "supportsInterface(bytes4)": {
        "details": "See {IERC165-supportsInterface}."
      },
      "symbol()": {
        "details": "See {IERC721Metadata-symbol}."
      },
      "tokenURI(uint256)": {
        "details": "See {IERC721Metadata-tokenURI}."
      },
      "transferFrom(address,address,uint256)": {
        "details": "See {IERC721-transferFrom}."
      },
      "transferOwnership(address)": {
        "details": "Transfers ownership of the contract to a new account (`newOwner`). Can only be called by the current owner."
      }
    },
    "version": 1
  },
  "userdoc": {
    "kind": "user",
    "methods": {},
    "version": 1
  },
  "storageLayout": {
    "storage": [
      {
        "astId": 129,
        "contract": "contracts/ethPaintPro.sol:ETHPaintPro",
        "label": "_name",
        "offset": 0,
        "slot": "0",
        "type": "t_string_storage"
      },
      {
        "astId": 131,
        "contract": "contracts/ethPaintPro.sol:ETHPaintPro",
        "label": "_symbol",
        "offset": 0,
        "slot": "1",
        "type": "t_string_storage"
      },
      {
        "astId": 135,
        "contract": "contracts/ethPaintPro.sol:ETHPaintPro",
        "label": "_owners",
        "offset": 0,
        "slot": "2",
        "type": "t_mapping(t_uint256,t_address)"
      },
      {
        "astId": 139,
        "contract": "contracts/ethPaintPro.sol:ETHPaintPro",
        "label": "_balances",
        "offset": 0,
        "slot": "3",
        "type": "t_mapping(t_address,t_uint256)"
      },
      {
        "astId": 143,
        "contract": "contracts/ethPaintPro.sol:ETHPaintPro",
        "label": "_tokenApprovals",
        "offset": 0,
        "slot": "4",
        "type": "t_mapping(t_uint256,t_address)"
      },
      {
        "astId": 149,
        "contract": "contracts/ethPaintPro.sol:ETHPaintPro",
        "label": "_operatorApprovals",
        "offset": 0,
        "slot": "5",
        "type": "t_mapping(t_address,t_mapping(t_address,t_bool))"
      },
      {
        "astId": 1066,
        "contract": "contracts/ethPaintPro.sol:ETHPaintPro",
        "label": "_tokenURIs",
        "offset": 0,
        "slot": "6",
        "type": "t_mapping(t_uint256,t_string_storage)"
      },
      {
        "astId": 7,
        "contract": "contracts/ethPaintPro.sol:ETHPaintPro",
        "label": "_owner",
        "offset": 0,
        "slot": "7",
        "type": "t_address"
      },
      {
        "astId": 1776,
        "contract": "contracts/ethPaintPro.sol:ETHPaintPro",
        "label": "tokenCounter",
        "offset": 0,
        "slot": "8",
        "type": "t_uint256"
      },
      {
        "astId": 1778,
        "contract": "contracts/ethPaintPro.sol:ETHPaintPro",
        "label": "fee",
        "offset": 0,
        "slot": "9",
        "type": "t_uint256"
      },
      {
        "astId": 1782,
        "contract": "contracts/ethPaintPro.sol:ETHPaintPro",
        "label": "isFrozen",
        "offset": 0,
        "slot": "10",
        "type": "t_mapping(t_uint256,t_bool)"
      },
      {
        "astId": 1786,
        "contract": "contracts/ethPaintPro.sol:ETHPaintPro",
        "label": "tokenIdString",
        "offset": 0,
        "slot": "11",
        "type": "t_mapping(t_uint256,t_string_storage)"
      },
      {
        "astId": 1790,
        "contract": "contracts/ethPaintPro.sol:ETHPaintPro",
        "label": "iterations",
        "offset": 0,
        "slot": "12",
        "type": "t_mapping(t_uint256,t_uint256)"
      },
      {
        "astId": 1794,
        "contract": "contracts/ethPaintPro.sol:ETHPaintPro",
        "label": "sizeStrings",
        "offset": 0,
        "slot": "13",
        "type": "t_mapping(t_uint256,t_string_storage)"
      }
    ],
    "types": {
      "t_address": {
        "encoding": "inplace",
        "label": "address",
        "numberOfBytes": "20"
      },
      "t_bool": {
        "encoding": "inplace",
        "label": "bool",
        "numberOfBytes": "1"
      },
      "t_mapping(t_address,t_bool)": {
        "encoding": "mapping",
        "key": "t_address",
        "label": "mapping(address => bool)",
        "numberOfBytes": "32",
        "value": "t_bool"
      },
      "t_mapping(t_address,t_mapping(t_address,t_bool))": {
        "encoding": "mapping",
        "key": "t_address",
        "label": "mapping(address => mapping(address => bool))",
        "numberOfBytes": "32",
        "value": "t_mapping(t_address,t_bool)"
      },
      "t_mapping(t_address,t_uint256)": {
        "encoding": "mapping",
        "key": "t_address",
        "label": "mapping(address => uint256)",
        "numberOfBytes": "32",
        "value": "t_uint256"
      },
      "t_mapping(t_uint256,t_address)": {
        "encoding": "mapping",
        "key": "t_uint256",
        "label": "mapping(uint256 => address)",
        "numberOfBytes": "32",
        "value": "t_address"
      },
      "t_mapping(t_uint256,t_bool)": {
        "encoding": "mapping",
        "key": "t_uint256",
        "label": "mapping(uint256 => bool)",
        "numberOfBytes": "32",
        "value": "t_bool"
      },
      "t_mapping(t_uint256,t_string_storage)": {
        "encoding": "mapping",
        "key": "t_uint256",
        "label": "mapping(uint256 => string)",
        "numberOfBytes": "32",
        "value": "t_string_storage"
      },
      "t_mapping(t_uint256,t_uint256)": {
        "encoding": "mapping",
        "key": "t_uint256",
        "label": "mapping(uint256 => uint256)",
        "numberOfBytes": "32",
        "value": "t_uint256"
      },
      "t_string_storage": {
        "encoding": "bytes",
        "label": "string",
        "numberOfBytes": "32"
      },
      "t_uint256": {
        "encoding": "inplace",
        "label": "uint256",
        "numberOfBytes": "32"
      }
    }
  }
}